:100000000C9434000C9451000C9451000C94510049
:100010000C9451000C9451000C9451000C9451001C
:100020000C9451000C9451000C9451000C9451000C
:100030000C9451000C9451000C9451000C945100FC
:100040000C9451000C9451000C9451000C945100EC
:100050000C9451000C9451000C9451000C945100DC
:100060000C9451000C94510011241FBECFEFD8E026
:10007000DEBFCDBF11E0A0E0B1E0E2E6F1E002C0FA
:1000800005900D92A230B107D9F721E0A2E0B1E0CE
:1000900001C01D92A330B207E1F70E9453000C94F7
:1000A000AF000C9400000E9464000E947900882335
:1000B000E1F30E949900809302010E948B0080E08E
:1000C00091E00E949C00F1CF1092C5008CE08093DB
:1000D000C400E0ECF0E0808182608083E1ECF0E03D
:1000E000808188618083E2ECF0E08081866080839B
:1000F00008958091C000881F8827881F08958091E7
:10010000C00086FB882780F908958091C00085FB98
:10011000882780F90895CF93C82F0E9485008823EF
:10012000E1F3C093C6000E947F008823E1F3CF91E2
:1001300008958091C60008950F931F93CF938C016B
:10014000C0E0F801EC0FF11D8081882321F00E94AE
:100150008B00CF5FF6CFCF911F910F910895F89448
:02016000FFCFCF
:02016200090092
:00000001FF
