:100000000C9434000C9449000C9449000C94490061
:100010000C9449000C9449000C9449000C9449003C
:100020000C9449000C9449000C9449000C9449002C
:100030000C9449000C9449000C9449000C9449001C
:100040000C9449000C9449000C9449000C9449000C
:100050000C9449000C9449000C9449000C944900FC
:100060000C9449000C94490011241FBECFEFD8E036
:10007000DEBFCDBF11E0A0E0B1E0EEEAF2E002C0E9
:1000800005900D92A835B107D9F70E944B000C944A
:1000900055010C94000090E080E80FB6F89480932E
:1000A0006100909361000FBE0E94630060E880E0F1
:1000B0000E94A50067E571E080E090E00E941401D5
:1000C0000E943101FFCF1092C50083E38093C400EA
:1000D000E0ECF0E080818D7F8083E1ECF0E08081D6
:1000E00088618083E2ECF0E08081866080830895FF
:1000F0008091C00086FB882780F908958091C00018
:1001000085FB882780F90895CF93C82F0E947E0031
:100110008823E1F3C093C6000E9478008823E1F3AE
:10012000CF9108950F931F93CF938C01C0E0F801F6
:10013000EC0FF11D8081882321F00E948400CF5FA5
:10014000F6CFCF911F910F91089594B19C6294B90D
:1001500024982C9A813049F028F0823061F0833065
:1001600081F012C08CB5837F8CBD8CB5877F8CBD30
:100170008CB584608CBD8CB58B7F8CBD8CB5886054
:100180008CBD8CB58C608CBD6031B9F058F4623098
:1001900081F0683009F58CB581608CBD8DB58160CA
:1001A0008DBD0BC0603491F0603899F06032A1F4DD
:1001B00007C08DB581608DBD0FC08CB581608CBDD1
:1001C0008DB581608DBD8CB582608CBD8CB5826033
:1001D0008CBD8CB583608CBD8CB580658CBD08955D
:1001E0008EBD0DB407FEFDCF0895CF93C82F892F84
:1001F0000E94F0008C2FCF910C94F0002A9885E09B
:100200000E94F00080E00E94F0002A9A8EB50895C6
:100210002A9886E00E94F0002A9A08952A9A0E945D
:10022000FE0080FDFCCF08950F931F93CF93DF93C3
:100230001F92CDB7DEB78C0169830E9408012A980E
:1002400082E00E94F000C8010E94F5006981862FBB
:100250000E94F0000F90DF91CF911F910F910C94AD
:100260000E011F93CF93DF9380E091E00E949200F4
:10027000C0E0D0E00E9408012A98CE010E94F5005B
:1002800010E480E00E94F0001150D9F70E940E01A6
:10029000C05CDF4FC11580E8D80761F789E391E0C2
:0E02A000DF91CF911F910C949200F894FFCF44
:1002AE00436C656172696E6720454550524F4D2013
:1002BE006E6F7720626567696E732E2E2E205468DE
:1002CE006973206D696768742074616B65206120A5
:1002DE006D6F6D656E742E0A00436C656172696E8A
:1002EE006720454550524F4D207375636365737398
:0802FE0066756C2E2E2E0A001D
:00000001FF
