:100000000C9434000C9449000C9449000C94490061
:100010000C9449000C9449000C9449000C9449003C
:100020000C9449000C9449000C9449000C9449002C
:100030000C9449000C9449000C9449000C9449001C
:100040000C9449000C9449000C9449000C9449000C
:100050000C9449000C9449000C9449000C944900FC
:100060000C9449000C94490011241FBECFEFD8E036
:10007000DEBFCDBF11E0A0E0B1E0EEE1F2E002C0F2
:1000800005900D92A230B107D9F70E94C1000C94DF
:100090000D010C94000094B19C6294B924982C9AA0
:1000A000813049F028F0823061F0833081F012C055
:1000B0008CB5837F8CBD8CB5877F8CBD8CB58460FF
:1000C0008CBD8CB58B7F8CBD8CB588608CBD8CB5A0
:1000D0008C608CBD8CB583658CBD08958EBD0DB4D0
:1000E00007FEFDCF0895CF93C82F892F0E946E0081
:1000F0008C2FCF910C946E002A9885E00E946E00A0
:1001000080E00E946E002A9A8EB50895CF93DF9307
:10011000EC012A9883E00E946E00CE010E947300D9
:1001200080E00E946E002A9A8EB5DF91CF910895EB
:100130002A9886E00E946E002A9A08952A9A0E94C0
:100140007C0080FDFCCF08950F931F93CF93DF9326
:100150001F92CDB7DEB78C0169830E9498002A9860
:1001600082E00E946E00C8010E9473006981862FA0
:100170000E946E000F90DF91CF911F910F910C9410
:100180009E0090E080E80FB6F89480936100909311
:1001900061000FBE0E94DE0080E00E944B0060E024
:1001A00071E080E090E00E94A400C1E0D0E0CE01C8
:1001B0000E9486000E94FF002196F9CF1092C50090
:1001C00083E38093C400E0ECF0E080818D7F808346
:1001D000E1ECF0E0808188618083E2ECF0E08081F6
:1001E0008660808308958091C00086FB882780F90F
:1001F00008958091C00085FB882780F90895CF93EA
:10020000C82F0E94F9008823E1F3C093C6000E9422
:0E021000F3008823E1F3CF910895F894FFCF17
:02021E000000DE
:00000001FF
