:100000000C9434000C943E000C943E000C943E0082
:100010000C943E000C943E000C943E000C943E0068
:100020000C943E000C943E000C943E000C943E0058
:100030000C943E000C943E000C943E000C943E0048
:100040000C943E000C943E000C943E000C943E0038
:100050000C943E000C943E000C943E000C943E0028
:100060000C943E000C943E0011241FBECFEFD8E04C
:10007000DEBFCDBF0E9440000C9457000C940000DE
:1000800090E080E80FB6F89480936100909361004F
:100090000FBE579A8BB180588BB92FEF80E792E053
:1000A000215080409040E1F700C00000F3CFF89469
:0200B000FFCF80
:00000001FF
