:100000000C9434000C9446000C9446000C9446006A
:100010000C9446000C9446000C9446000C94460048
:100020000C9446000C9446000C9446000C94460038
:100030000C9446000C9446000C9446000C94460028
:100040000C9448000C9446000C9446000C94460016
:100050000C9446000C9446000C9446000C94460008
:100060000C9446000C94460011241FBECFEFD8E03C
:10007000DEBFCDBF21E0A0E0B1E001C01D92A531FF
:10008000B207E1F70E94C5000C940E010C94000029
:100090001F920F920FB60F9211240F931F932F935D
:1000A0003F934F935F936F937F938F939F93AF9300
:1000B000BF938091040190910501A0910601B09138
:1000C000070100910001109101012091020130917E
:1000D0000301B901A8014A5F5F4F6F4F7F4F4A3F4D
:1000E00051056105710520F40296A11DB11D09C0DD
:1000F000B901A801445F5109610971090496A11D64
:10010000B11D8093040190930501A0930601B09363
:100110000701409300015093010160930201709325
:1001200003018091080190910901A0910A01B09109
:100130000B010196A11DB11D809308019093090147
:10014000A0930A01B0930B01BF91AF919F918F9142
:100150007F916F915F914F913F912F911F910F91DF
:100160000F900FBE0F901F9018952FB7F8948091A5
:10017000040190910501A0910601B09107012FBFE4
:10018000BC01CD0188279927089580916E00816078
:1001900080936E0085B5826085BD85B58E7F85BDF7
:1001A00085B58B7F85BD789453985B9A8AB1806EB4
:1001B0008AB9D0E4C9B10E94B5006093110170936F
:1001C00012018093130190931401C3FD24C0009188
:1001D0000C0110910D0120910E0130910F01DC01F5
:1001E000CB01801B910BA20BB30B85369105A105AA
:1001F000B10588F080911001C81769F08BB18D2787
:100200008BB90E94B50060930C0170930D0180932F
:100210000E0190930F01C0931001CCCFF894FFCF43
:00000001FF
