:100000000C9434000C9451000C9451000C94510049
:100010000C9451000C9451000C9451000C9451001C
:100020000C9451000C9451000C9451000C9451000C
:100030000C9451000C9451000C9451000C945100FC
:100040000C9451000C9451000C9451000C945100EC
:100050000C9451000C9451000C9451000C945100DC
:100060000C9451000C94510011241FBECFEFD8E026
:10007000DEBFCDBF11E0A0E0B1E0E6E6F1E002C0F6
:1000800005900D92A830B107D9F721E0A8E0B1E0C2
:1000900001C01D92A930B207E1F70E94A0000C94A4
:1000A000B1000C9400001092C5008CE08093C40055
:1000B000E0ECF0E0808182608083E1ECF0E0808120
:1000C00088618083E2ECF0E08081866080838AB181
:1000D000806C8AB908958091C000881F8827881F86
:1000E00008958091C00086FB882780F9089580914B
:1000F000C00085FB882780F90895CF93C82F0E9400
:1001000077008823E1F35E9AC093C6000E947100D5
:100110008823E1F35E98CF9108950F931F93CF93B7
:100120008C01C0E0F801EC0FF11D8081882321F0E3
:100130000E947D00CF5FF6CFCF911F910F91089560
:100140000E9453000E946B008823E1F38091C60057
:10015000809308010E947D0080E091E00E948D0064
:06016000F1CFF894FFCF7F
:0801660048656C6C6F09000094
:00000001FF
