:100000000C9434000C9449000C9449000C94490061
:100010000C9449000C9449000C9449000C9449003C
:100020000C9449000C9449000C9449000C9449002C
:100030000C9449000C9449000C9449000C9449001C
:100040000C9449000C9449000C9449000C9449000C
:100050000C9449000C9449000C9449000C944900FC
:100060000C9449000C94490011241FBECFEFD8E036
:10007000DEBFCDBF11E0A0E0B1E0ECE7F3E002C0ED
:1000800005900D92A430B107D9F70E944B000C9453
:10009000BC010C9400008FE187B981E084B9C1E014
:1000A00001E010E081E1E82EF12C85B18C2785B9C3
:1000B00080E090E048B19801082E01C0220F0A9418
:1000C000EAF7242B28B9E7EAF1E63197F1F700C007
:1000D000000001968530910569F785B18C2785B9B7
:1000E00080E090E038B1A801082E01C0440F0A94C6
:1000F000EAF7242F2095232328B9E7EAF1E6319780
:10010000F1F700C0000001968530910559F785B1DF
:100110008C2785B9FFE728E381E0F150204080403B
:10012000E1F700C0000085E098B19801082E01C0F9
:10013000220F0A94EAF7292B28B9E7EAF1E631976A
:10014000F1F700C00000815078F785B18C2785B9A0
:1001500085E028B1A801082E01C0440F0A94EAF7EF
:10016000942F9095922398B9E7EAF1E63197F1F749
:1001700000C00000815068F7FFE728E381E0F150FC
:1001800020408040E1F700C000000E944B01B70111
:100190000E94D50088B99FE9E6E8F1E09150E0407F
:1001A000F040E1F700C0000080CF97FB072E16F467
:1001B000009407D077FD09D00E94E90007FC05D024
:1001C0003EF4909581959F4F0895709561957F4F6E
:1001D0000895AA1BBB1B51E107C0AA1FBB1FA6178E
:1001E000B70710F0A61BB70B881F991F5A95A9F7E0
:1001F00080959095BC01CD0108958F929F92AF920A
:10020000BF92CF92DF92EF92FF92CF93DF93EC01F8
:10021000688179818A819B816115710581059105CC
:1002200021F464E279ED8BE597E02DE133EF41E0D5
:1002300050E00E94590149015A019B01AC01A7EA13
:10024000B1E40E9478016B017C01ACEEB4EFA50132
:1002500094010E948601DC01CB018C0D9D1DAE1D19
:10026000BF1DB7FF03C00197A109B04888839983D8
:10027000AA83BB83BC01CD019F77DF91CF91FF9013
:10028000EF90DF90CF90BF90AF909F908F900895A8
:100290000E94FD00089580E091E00E94FD00089515
:1002A0006093000170930101809302019093030118
:1002B0000895052E97FB1EF400940E94700157FDCF
:1002C00007D00E948B0107FC03D04EF40C94700100
:1002D00050954095309521953F4F4F4F5F4F089572
:1002E00090958095709561957F4F8F4F9F4F0895A2
:1002F0000E94AD01A59F900DB49F900DA49F800D0D
:10030000911D11240895B7FF0C9478010E94780183
:10031000821B930B0895A1E21A2EAA1BBB1BFD01A1
:100320000DC0AA1FBB1FEE1FFF1FA217B307E407D4
:10033000F50720F0A21BB30BE40BF50B661F771F2C
:10034000881F991F1A9469F760957095809590950C
:100350009B01AC01BD01CF010895A29FB001B39FE5
:10036000C001A39F700D811D1124911DB29F700DBE
:0C037000811D1124911D0895F894FFCF09
:04037C00010000007C
:00000001FF
