:100000000C9434000C943E000C9448000C943E0078
:100010000C943E000C943E000C943E000C943E0068
:100020000C943E000C943E000C943E000C943E0058
:100030000C943E000C943E000C943E000C943E0048
:100040000C943E000C943E000C943E000C943E0038
:100050000C943E000C943E000C943E000C943E0028
:100060000C943E000C943E0011241FBECFEFD8E04C
:10007000DEBFCDBF0E9457000C9469000C940000B5
:10008000E99AE9E6F0E080818460808378940895BD
:100090001F920F920FB60F9211244B9902C05F9AD4
:1000A00001C05F980F900FBE0F901F901895539846
:1000B0008AB1806C8AB90E9440005B9A90E4EFE4B8
:1000C000F3EC3197F1F700C000008BB189278BB9B1
:0600D000F6CFF894FFCF0B
:00000001FF
