:100000000C9434000C9449000C9449000C94490061
:100010000C9449000C9449000C9449000C9449003C
:100020000C9449000C9449000C9449000C9449002C
:100030000C9449000C9449000C9449000C9449001C
:100040000C9449000C9449000C9449000C9449000C
:100050000C9449000C9449000C9449000C944900FC
:100060000C9449000C94490011241FBECFEFD8E036
:10007000DEBFCDBF11E0A0E0B1E0E4E7F3E002C0F5
:1000800005900D92AA30B107D9F70E949A000C94FE
:10009000B8010C94000080E28093B800ECEBF0E033
:1000A00080818460808308958091BC0087FFFCCFAD
:1000B000089584EA8093BC000C945400ECEBF0E0CB
:1000C00084E9808380818F7D8083089584EC809390
:1000D000BC000E9454008091BB000895ECEBF0E05E
:1000E00084E8808380818F7B80830E94540080918C
:1000F000BB0008958093BB0084E88093BC000C94FF
:100100005400CF93C82F64E60E94AC01805D0E942A
:100110008B012AE08C2F622F0E94AC01C92F0E9414
:10012000AC0180E3890F0E948B0180E38C0FCF919B
:100130000C948B0190E080E80FB6F89480936100F6
:10014000909361000FBE8AB1806C8AB90E944B0007
:100150000E946A010E94590082EA0E947A0082E0AD
:100160000E947A0080E30E947A0089E30E947A006C
:1001700081E20E947A0087E10E947A0083E00E9477
:100180007A0081E00E947A0088E10E947A000E9451
:100190005E005F9A80E4E82E0E94590082EA0E9485
:1001A0007A0082E00E947A000E94590083EA0E944D
:1001B0007A000E946600082F0E946600F82E0E94B6
:1001C0006600D82E0E946600C82F0E946600C82EC6
:1001D0000E946600D82F0E946E00182F0E945E00B9
:1001E0008BB18E258BB99D2D96959695969596708B
:1001F000892F880F880F890F9D2D9F70890F0E946E
:10020000810080E091E00E9499019F2D969596953E
:1002100096959E70892F880F880F890F9F2D9F704C
:10022000890F0E94810080E091E00E949901902F47
:100230009695969596959E70892F880F880F890FB1
:100240000F70800F0E94810082E091E00E9499016E
:10025000812F82958F701F702AE0829F100D1124CC
:10026000812F0E94810085E091E00E949901D4FBDA
:10027000992790F9990F892F880F880F890FDF70C0
:100280008D0F0E94810085E091E00E9499019C2FD2
:100290009695969596959670892F880F880F890F59
:1002A000CF708C0F0E94810083E091E00E94990141
:1002B0008C2D87700E94810087E091E00E94990157
:1002C0008FEF94E32CE0815090402040E1F700C094
:1002D000000062CF1092C50083E38093C400E0EC7D
:1002E000F0E080818D7F8083E1ECF0E080818861A7
:1002F0008083E2ECF0E080818660808308958091C5
:10030000C00086FB882780F908958091C00085FB96
:10031000882780F90895CF93C82F0E9485018823EC
:10032000E1F3C093C6000E947F018823E1F3CF91DF
:1003300008950F931F93CF938C01C0E0F801EC0F49
:10034000F11D8081882321F00E948B01CF5FF6CFC1
:10035000CF911F910F910895991B79E004C0991FC7
:10036000961708F0961B881F7A95C9F7809508950F
:04037000F894FFCF2F
:0A0374003A003B09002E000A0000C9
:00000001FF
