:100000000C943E000C9448000C9448000C9448005A
:100010000C9448000C9448000C9448000C94480040
:100020000C9448000C9448000C9448000C94480030
:100030000C9448000C9448000C9448000C94480020
:100040000C9448000C9448000C9448000C94480010
:100050000C9448000C9448000C9448000C94480000
:100060000C9448000C9448000C9448000C944800F0
:100070000C9448000C9448000C94480011241FBEB6
:10008000CFEFD4E0DEBFCDBF0E944A000C945600F3
:100090000C940000209A91E085B1892785B9E7EAA0
:1000A000F1E63197F1F700C00000F6CFF894FFCFEA
:00000001FF
