:100000000C943E000C9450000C9450000C94500042
:100010000C9450000C9450000C9450000C94500020
:100020000C9450000C9450000C9450000C94500010
:100030000C9450000C9450000C9450000C94500000
:100040000C9450000C9450000C9450000C945000F0
:100050000C9450000C9450000C9450000C945000E0
:100060000C9450000C9450000C9450000C945200CE
:100070000C9450000C9450000C94500011241FBE9E
:10008000CFEFD4E0DEBFCDBF21E0A0E0B1E001C002
:100090001D92A230B207E1F70E9472000C94BA00E0
:1000A0000C9400001F920F920FB60F9211248F93A1
:1000B0009F93EF93FF932898809178009091790017
:1000C0009093010180930001EAE7F0E08081806471
:1000D0008083FF91EF919F918F910F900FBE0F90B2
:1000E0001F901895229880917A008F6880937A00EB
:1000F00080917C00866080937C0080917C0080648D
:1001000080937C0080917C008F7780937C0080912D
:100110007B00806280937B00399A809180008360AD
:100120008093800080918000806280938000809125
:1001300080008F7E8093800084B1836084B9289A88
:10014000789480917A00806480937A0080917A001C
:1001500086FDFCCF80917800909179009093010109
:100160008093000188EE93E0289A90938B0080930F
:080170008A00FACFF894FFCFDA
:00000001FF
