:100000000C943E000C9450000C9450000C94500042
:100010000C9450000C9450000C9450000C94500020
:100020000C9450000C9450000C9450000C94500010
:100030000C9450000C9450000C9450000C94500000
:100040000C9450000C9450000C9450000C945000F0
:100050000C9450000C9450000C9450000C945000E0
:100060000C9450000C9450000C9450000C945200CE
:100070000C9450000C9450000C94500011241FBE9E
:10008000CFEFD4E0DEBFCDBF21E0A0E0B1E001C002
:100090001D92A230B207E1F70E949B000C94B600BB
:1000A0000C9400001F920F920FB60F9211248F93A1
:1000B0009F93EF93FF93299A809178009091790014
:1000C0009093010180930001EAE7F0E08081806471
:1000D0008083FF91EF919F918F910F900FBE0F90B2
:1000E0001F9018952298EAE7F0E080818F6880835E
:1000F000ECE7F0E08081856080838081806480838C
:1001000080818F778083EBE7F0E08081806280835D
:100110000895E0E8F0E080818360808380818068DA
:10012000808380818F7B8083529AE1E8F0E0808138
:1001300081608083089578940E9472000E948900F3
:1001400084B1836084B9289A80917A008064809316
:100150007A0021E085B1822785B9809100019091D4
:1001600001019093890080938800F4CFF894FFCF29
:00000001FF
