:100000000C943E000C9450000C9450000C94500042
:100010000C9450000C9450000C9450000C94500020
:100020000C9450000C9450000C9450000C94500010
:100030000C9450000C9450000C9450000C94500000
:100040000C9450000C9450000C9450000C945000F0
:100050000C9450000C9450000C9450000C945000E0
:100060000C9450000C9450000C9450000C945200CE
:100070000C9450000C9450000C94500011241FBE9E
:10008000CFEFD4E0DEBFCDBF21E0A0E0B1E001C002
:100090001D92A230B207E1F70E9475000C94BB00DC
:1000A0000C9400001F920F920FB60F9211248F93A1
:1000B0009F93EF93FF9395B182E0892785B9809153
:1000C0007800909179009093010180930001EAE714
:1000D000F0E0808180648083FF91EF919F918F9108
:1000E0000F900FBE0F901F901895229880917A0064
:1000F0008F6880937A0080917C00856080937C007B
:1001000080917C00806480937C0080917C008F775C
:1001100080937C0080917B00806280937B00809143
:10012000800083608093800080918000806880934D
:100130008000809180008F7B80938000529A809114
:10014000810081608093810084B1836084B9289AA2
:10015000789480917A00806480937A0021E085B160
:10016000822785B9809100019091010190938900C7
:0A01700080938800F4CFF894FFCFCD
:00000001FF
