:100000000C9434000C943E000C943E000C943E0082
:100010000C943E000C943E000C943E000C943E0068
:100020000C943E000C943E000C943E000C943E0058
:100030000C943E000C943E000C943E000C943E0048
:100040000C943E000C943E000C943E000C943E0038
:100050000C943E000C943E000C943E000C943E0028
:100060000C943E000C943E0011241FBECFEFD8E04C
:10007000DEBFCDBF0E9440000C946B000C940000CA
:1000800039982198299A80917A00876880937A001C
:1000900080917C00816480937C0085B5816085BD02
:1000A00084B5816884BD84B58F7B84BD569A809168
:1000B0007A00806480937A00809178009091790032
:1000C000969587959695879587BD199902C0289A28
:0A00D000EECF2898ECCFF894FFCF94
:00000001FF
