:100000000C943E000C9450000C9450000C94500042
:100010000C9450000C9450000C9450000C94500020
:100020000C9450000C9450000C9450000C94500010
:100030000C9450000C9450000C9450000C94500000
:100040000C9450000C9450000C9450000C945000F0
:100050000C9450000C9450000C9450000C945000E0
:100060000C9450000C9450000C9450000C945200CE
:100070000C9450000C9450000C94500011241FBE9E
:10008000CFEFD4E0DEBFCDBF21E0A0E0B1E001C002
:100090001D92A430B207E1F70E94CB000C947902C4
:1000A0000C9400001F920F920FB60F9211242F9301
:1000B0003F934F935F936F937F938F939F93AF93F0
:1000C000BF93EF93FF93299A8091780090917900E4
:1000D00090930101809300016091000170910101F2
:1000E00080E090E00E947E0120E030E040E85AE3AA
:1000F0000E940C0220E030E04FE255E40E940C0226
:1001000020E030E844ED54E40E94E3000E944F01F7
:100110007093030160930201EAE7F0E0808180645C
:100120008083FF91EF91BF91AF919F918F917F91CC
:100130006F915F914F913F912F910F900FBE0F9054
:100140001F901895E0E8F0E08081826880838081CC
:100150008F7B8083E1E8F0E080818A61808380E4A6
:100160009CE99093870080938600529A0895229884
:10017000EAE7F0E080818F688083ECE7F0E080813F
:100180008564808380818F778083EBE7F0E08081D6
:10019000806280830895789484B1836084B9289ABA
:1001A0000E94B7000E94A20080917A008064809330
:1001B0007A008091020190910301909389008093CD
:1001C0008800F7CF5058BB27AA270E94FA000C944A
:1001D000D2010E94C40138F00E94CB0120F039F412
:1001E0009F3F19F426F40C94C1010EF4E095E7FB4F
:1001F0000C94BB01E92F0E94E30158F3BA17620780
:1002000073078407950720F079F4A6F50C9405028E
:100210000EF4E0950B2EBA2FA02D0B01B901900121
:100220000C01CA01A0011124FF27591B99F0593F65
:1002300050F4503E68F11A16F040A22F232F342FAD
:100240004427585FF3CF469537952795A795F040FB
:100250005395C9F77EF41F16BA0B620B730B840B10
:10026000BAF09150A1F0FF0FBB1F661F771F881FC8
:10027000C2F70EC0BA0F621F731F841F48F4879520
:1002800077956795B795F7959E3F08F0B0CF939512
:10029000880F08F09927EE0F9795879508950E948B
:1002A000EB0188F09F5798F0B92F9927B751B0F01C
:1002B000E1F0660F771F881F991F1AF0BA95C9F7EA
:1002C00014C0B13091F00E940502B1E008950C9481
:1002D0000502672F782F8827B85F39F0B93FCCF334
:1002E000869577956795B395D9F73EF49095809567
:1002F000709561957F4F8F4F9F4F0895E89409C087
:1003000097FB3EF490958095709561957F4F8F4F48
:100310009F4F9923A9F0F92F96E9BB279395F6955E
:10032000879577956795B795F111F8CFFAF4BB0FDC
:1003300011F460FF1BC06F5F7F4F8F4F9F4F16C040
:10034000882311F096E911C0772321F09EE8872FCA
:10035000762F05C0662371F096E8862F70E060E086
:100360002AF09A95660F771F881FDAF7880F9695FF
:10037000879597F9089597F99F6780E870E060E0A6
:1003800008959FEF80EC089500240A94161617062E
:1003900018060906089500240A9412161306140676
:1003A00005060895092E0394000C11F4882352F0D9
:1003B000BB0F40F4BF2B11F460FF04C06F5F7F4F91
:1003C0008F4F9F4F089557FD9058440F551F59F078
:1003D0005F3F71F04795880F97FB991F61F09F3F32
:1003E00079F087950895121613061406551FF2CF5B
:1003F0004695F1DF08C0161617061806991FF1CFAB
:1004000086957105610508940895E894BB276627D1
:100410007727CB0197F908950E941F020C94D2010F
:100420000E94C40138F00E94CB0120F0952311F006
:100430000C94BB010C94C10111240C9406020E947F
:10044000E30170F3959FC1F3950F50E0551F629F34
:10045000F001729FBB27F00DB11D639FAA27F00D1D
:10046000B11DAA1F649F6627B00DA11D661F829F44
:100470002227B00DA11D621F739FB00DA11D621F29
:10048000839FA00D611D221F749F3327A00D611D46
:10049000231F849F600D211D822F762F6A2F112428
:1004A0009F5750409AF0F1F088234AF0EE0FFF1F5B
:1004B000BB1F661F771F881F91505040A9F79E3FB2
:1004C000510580F00C94BB010C9406025F3FE4F3ED
:1004D000983ED4F3869577956795B795F795E79508
:1004E0009F5FC1F7FE2B880F911D9695879597F911
:0604F0000895F894FFCF0F
:00000001FF
